:020000020000FC
:100000001DC04EC018951895189518958CC0189558
:1000100095C0A0C01895189518951895189518951D
:100020001895189518950D0A626B4D797374657261
:10003000792032303431307230360D0A04E00EBF90
:100040000FE50DBF00E008BB01E207BB02E005BB06
:100050000AE304BB00E002BB00E301BB02E003BF14
:1000600002E00EBD772788279927BB27A0E6002747
:100070000D93A337E8F30FD204E6C02E0F931F931E
:1000800005E00095E3D01F910F91DD2405E108BF45
:1000900009BF789403E005BF30E43BBF2ED14FC2C7
:1000A0001FB645B740FF1DC0829B3BC042E045BF25
:1000B0004CB55DB5842E952E9F7B60916D00461BDF
:1000C00060916E00560B403563EC560730F44033B8
:1000D00065E7560710F0906424C0CC2011F1CA9453
:1000E00020C082991EC043E045BF83FD1AC04CB5B5
:1000F0005DB540936D0050936E0096FF12C09F7BDC
:100100004819590940936F0050937000403361E1E2
:10011000560718F7403466E05607F8F2886044E660
:10012000C42E1FBE18951FB671FD05C07E7FACB4EE
:10013000BDB41FBE18957D7F1FBE18951FB6706891
:10014000EE2009F0EA94CC2011F4FF2701C0CA94F4
:100150001FBE18951FB684FD15C0472D4F3F39F0BF
:1001600072BEC0989598AC9884611FBE1895C098CF
:100170009598AC980000000000000000000000000E
:100180000000000062BE80FD06C074FDC09A75FDCF
:10019000959A73FDAC9A897E772009F482611FBE1F
:1001A000189538EC10E509C034EB14E606C030EAC7
:1001B00018E703C034E618EC00C0002702BFAD9A70
:1001C000959A02B70032E9F7AD98959820E100279B
:1001D00002BF02B70317E9F72A95C9F71A9569F71D
:1001E00008951EE120E1002702BF02B70F3FE9F7A3
:1001F0002A95C9F71A95B1F708951EEF20E1002757
:1002000002BF02B70F3FE9F72A95C9F71A95B1F770
:10021000089583FF15C000916F0010917000877FD3
:100220000859184010F400271127169507951695C0
:10023000079516950795202F075C08F027ECF22FFD
:1002400008950D2D073C09F0D3940895102F1753EE
:1002500010951E5F0E3F08F00DEF0E5F38010895F8
:10026000093310F48E7F05C00A3F10F0816001C091
:100270008E7F08954F2E4D1408F04D2C93613091D0
:100280006300309064003D3000E0300628F4042D17
:100290000095E6DFDBDF089520916200203A0CE252
:1002A000300700E0300698F39D7F14E6141508F43B
:1002B000412E283409E5300700E0300640F39E7FE8
:1002C00012E3141508F4412E283A01E6300700E045
:1002D0003006E8F29F7EDBCF4F2E4D1408F04D2CF8
:1002E00018E2141508F4412E12E2411608F4412ECA
:1002F000042D0095B5DFAADF0895C6E8D1E0C093CC
:100300006A00D09369002FEF3FE12093650030939E
:1003100066002093670030936800E2E03E2EE09391
:1003200064003FEF309363002FEF20936200089545
:10033000F8940CB51DB5C00FD11FDBBDCABD7894B4
:1003400071607894442420916000309161000093A2
:10035000600010936100021B130B2091620030912A
:10036000630030906400E9013694D795C7953694C0
:10037000D795C795309064002C1B3D0B3408200F97
:10038000311F341C97FF03C0200F311F341C2C3445
:1003900001E03007340418F4DD2009F0DA942093EA
:1003A0006200309363003092640013E0311608F06D
:1003B000B4DF36943795279536943795279536953B
:1003C0002795022F132F369527952093650030939C
:1003D00066002093670030936800020F131F00939C
:1003E0006B0010936C000895C0916700D091680075
:1003F0009FCF97FD0EC070FDFECFD0916600C091DB
:100400006500F894CA0DDB1DDBBDCABD7894716030
:100410000895F894ACB4BDB47894EFCF97FD15C0AF
:1004200083FDF7DE27DF83FF02C0F3DE23DF70FDED
:10043000FACFD0916C00C0916B00F894CA0DDB1D0F
:10044000DBBDCABD78947160089570FDFECFF1CF19
:10045000C4E6D0E06DDF70FDFECFC0916A00D091A0
:1004600069004424F8940A2D1B2D040D1C1F1BBD8C
:100470000ABD7160DD2309F072607894C350D040EA
:10048000C83301E0D00710F4C6E8D1E0C0936A0099
:10049000D09369000895F5E00F931F9305E0009550
:1004A000D5DE1F910F9100E0D02E00E008BB02E0E6
:1004B00005BB00E002BB81609062089508958160F1
:1004C00000E008BB02E005BB00E002BBC59A08954E
:1004D00002E0E02EEE20F1F7089500E008BB00E016
:1004E00002BB02E005BB08E20A95F1F78E7F02E24B
:1004F000D02E0F931F9308E00095A8DE1F910F9157
:1005000047D117D1AD9AE4DFE3DF0F931F9301E1E9
:1005100000959CDE1F910F91DBDF0F931F9309E184
:10052000009594DE1F910F91D3DF0F931F9302E28A
:1005300000958CDE1F910F91AD9802D10895ABDF2D
:10054000BDDF67DE379800B7086000BF9F779B7FED
:1005500000E00093710000E5E02ECFDE79DF0CC0F3
:10056000D3D0C1D070FF9460E4D072DFBCD0CCD0C7
:1005700070FF9460E5D06CDFC7D0B5D070FF946099
:10058000ECD066DFB0D0C0D070FF9460EDD060DFFB
:10059000BBD0A9D070FF9460F4D053DE3ADE9CDE6D
:1005A00057DFA1D0B1D070FF9460F2D0EE2039F2C5
:1005B0000091710092FD00270395009371009B7FCD
:1005C000043140F0009163000A340091640010E0AF
:1005D000010710F03DDFC4CF08E2D02E05DF09DFB0
:1005E0001DDF9F779F7D00C05ED070FF03C06BD082
:1005F00070FD02C0906863DFF7DEFBDE9AD00EDF8D
:100600009F7761D070FF03C04ED070FD02C090682C
:1006100056DFEADEEEDE94D001DF9F7744D070FF34
:1006200003C051D070FD02C0906849DFDDDEE1DE1D
:1006300094D0F4DE9F7747D070FF03C034D070FDB4
:1006400002C090683CDFD0DED4DE8ED0E7DE9F773C
:100650002AD070FF03C037D070FD02C090682FDF32
:10066000C3DEC7DE8ED0DADE9F772DD070FF03C0E9
:100670001AD070FD02C0906822DFB6DEBADE88D0E4
:10068000E0DDCCDE9F7794FDAFCF9062F83208F0CA
:1006900001C057CFF894FFDED1CC0F9300E20A954A
:1006A000F1F70F9108950FEF18E022E070FF089521
:1006B0008894459B089408F41395001F08F41A9534
:1006C0001217A0F7089500E010E027E070FF0895EA
:1006D0008894459B089408F41395001F08F41A9514
:1006E0001217A0F3089500E010E025E070FF0895D0
:1006F0008894459B089408F41395001F08F41A95F4
:10070000CCDF121798F308950FEF18E024E070FF84
:1007100008958894459B089408F41395001F08F4E5
:100720001A95BBDF121798F7089570FF0895FDCF53
:100730000895AD98AB9880FF949A07E007B90895A3
:10074000F894777C786082FD04C0C098959880FF0B
:10075000AC9A789400E007B908959498AD9880FF1A
:10076000AB9A06E007B90895F894777C706282FD31
:1007700004C0AC98C09880FF959A789407E007B9B8
:100780000895AB98949880FFAD9A00E007B908955A
:10079000F894777C706182FD04C09598AC9880FFD6
:0A07A000C09A789406E007B90895A6
:00000001FF
