:1000000012C05FC02BC02AC029C028C027C026C08C
:1000100025C054C523C022C021C020C01FC01EC09F
:100020001DC01CC01BC011241FBECFE5D4E0DEBF25
:10003000CDBF10E0A0E6B0E0ECE4FCE002C005902B
:100040000D92A03AB107D9F710E0A0EAB0E001C0E4
:100050001D92A23DB107E1F72CD5F6C5D1CFAC0179
:10006000440F551F445050408FB7F8946CB57DB580
:100070008FBF2FB7F8948CB59DB52FBF861B970BFC
:1000800084179507B0F30895EF92FF920F931F9393
:100090007B018C01611571058105910569F088EE80
:1000A00093E0DDDF0894E108F10801091109E1148A
:1000B000F1040105110599F71F910F91FF90EF9041
:1000C00008951F920F920FB60F9211242F933F9312
:1000D0008F939F932CB53DB5829913C08091A40056
:1000E0009091A500281B390B3093A3002093A20008
:1000F0009F918F913F912F910F900FBE0F901F9066
:1001000018953093A5002093A400F2CF2091A2006F
:100110003091A300C9018950974087529A40D8F482
:100120004091A0005091A100CA0102968217930746
:1001300038F4A901415050405093A1004093A000D1
:10014000425050402417350730F42F5F3F4F309313
:10015000A1002093A0000895833020F4813040F066
:10016000C19A0895853010F4C29A08958530E9F750
:10017000C09A08958230B9F1833080F0843009F458
:100180003CC08430D0F4949833FCC29A84E087B9A0
:10019000379880B7886080BFC1980895882351F44C
:1001A0009398959A84E087B9379880B7886080BF24
:1001B00094980895813071F008958530E9F7959805
:1001C00033FCC09A85E087B9379880B7886080BFD4
:1001D000C2980895939833FCC19A80B7877F80BFF7
:1001E000379AC09808959498939A85E087B937987C
:1001F00080B7886080BF959808959598949A80B745
:10020000877F80BF379A93980895832D8770815098
:10021000B1DF832D8770AECF9201432D4695469571
:100220004695417011F0205D37408091C700909154
:10023000C800821B930B9093C8008093C70097FD62
:1002400008C0442329F087EF3822C298C198C0988B
:1002500008954423E9F7832D8860382E87707CCF7A
:1002600055DF8091A0009091A100805D9740843679
:100270009105E4F08C3891058CF42CE830E0C20153
:100280002419350935952795359527953595279561
:10029000359527952901480E591E08959C0182E045
:1002A0002935380764F328E532E0E9CF44245524A2
:1002B0000895A8E0B0E0EEE5F1E07EC41092C3003E
:1002C0002CE8422E512C88E098EFA1E0B0E080931A
:1002D000BD009093BE00A093BF00B093C0008FEF0D
:1002E0008093B8004091C5005091C6005E834D8355
:1002F0006091B3007091B4007C836B838091B600F1
:100300009091B7009A838983E091C100F091C20077
:10031000F887EF83E090B900F090BA000091BB003D
:100320001091BC00C090C400DD24222498E0892EE6
:1003300098EF992E91E0A92EB12C8FB7F8946CB458
:100340007DB48FBF459BA1C0FFEE3F2265DF34FE29
:1003500094C0C59A5AE2D51609F494C06DE2D61637
:1003600009F4B4C0DD2009F0C3C0A501940149011E
:100370005A0178866F82C301EF81F8858E1B9F0B2F
:10038000A0E0B0E082179307A407B50708F4A1C066
:10039000232D27708501740178866F8272E1C72E44
:1003A000C3014F815885841B950BA0E0B0E08E15EA
:1003B0009F05A007B10708F46BC0932D97708501C6
:1003C0007401DD24D394892F8F5F863010F0892F3C
:1003D00085508770932D987F392E382ACBDE40DFE9
:1003E000A50194012852304040405040203A66E830
:1003F000360761E0460760E0560720F420EA36E859
:1004000041E050E0DD2009F4A5C02224411451044C
:1004100009F0C1C02092C300ED81FE81F093C600B7
:10042000E093C5006B817C817093B4006093B3004E
:1004300089819A819093B7008093B6002093BD0084
:100440003093BE004093BF005093C0007092C20032
:100450006092C100E092B900F092BA000093BB0034
:100460001093BC00C092C40082E08093B8008091D9
:10047000B8002896EFE0BCC3C9C0C5985AE2D516AB
:1004800009F06CCFA801970176CF40E1342A5ECF06
:10049000E81AF90A0A0B1B0B922F20FD0DC034FE3F
:1004A0000DC0C39452E15C1568F482E1C82EBDE230
:1004B000DB2E78866F8241CF34FEF3CFCA9452E1AF
:1004C0005C1598F3CC2099F7DD247DCF232D277080
:1004D00067CF79018A01E81AF90A0A0B1B0B232D51
:1004E000277020FD61C034FC57CFEAE2DE2EE1CF59
:1004F0002092C300ED81FE81F093C600E093C50019
:100500004B815C815093B4004093B30069817A8140
:100510007093B7006093B6008092BD009092BE00C9
:10052000A092BF00B092C0008F8198859093C200C6
:100530008093C100E092B900F092BA000093BB0032
:100540001093BC00C092C4008091B8002896EFE0E0
:100550004FC35CC0832D877080FF58CFC301E981F2
:10056000FA818E1B9F0B9E838D836B817C81680F2C
:10057000791F769567957C836B83239477E7721553
:10058000B0F48B819C818D559141A0F07A82698273
:10059000F8E72F2E3BCF832D877009F0E8CE88B384
:1005A00090E1892788BBE3CE34FC9FCFF5CE7A82D9
:1005B00069822CCF88E78093C3006D817E81709320
:1005C000C6006093C5008B819C819093B40080939A
:1005D000B3007092B7006092B6002093BD003093D4
:1005E000BE004093BF005093C0007092C200609262
:1005F000C100E092B900F092BA000093BB001093E2
:10060000BC00C092C4001092B80031CF8FEF80932D
:10061000A60081E08093B5004091B6005091B700EC
:100620005093AC004093AB008091B3009091B40024
:100630009C01369527953093A8002093A700840F3E
:10064000951F820F931F2FB7F8949BBD8ABD2FBFB4
:1006500090E198BF88B3892788BB089557DD8091C2
:10066000A0009091A100805D97408436910524F40C
:1006700080E090E02C01089527E0813D9207D4F3BB
:1006800080ED97E02C010895ABE0B0E0E9E4F3E001
:1006900093C2BCDF2091AF003091B0003C832B832C
:1006A0008091A9009091AA009E838D83E091C5005E
:1006B000F091C600F887EF832091B6003091B70023
:1006C0003A832983E090B100F090B200C090B3006B
:1006D000D090B400A090AB00B090AC006090A700A8
:1006E0007090A8008090AD009090AE000091B50091
:1006F00010E0B0E22B2E8FB7F894ECB5FDB5FB8778
:10070000EA878FBF459B12C0FFEE3F22398530FD3F
:1007100012C0143499F01534D0F5183209F471C0B0
:10072000193208F469C01A32A9F577C020E1322ADB
:10073000398530FFEECF70DD143469F78A859B85EB
:100740008E199F098815990508F477C0EA84FB84FF
:100750008B809C80932D9770892F8F5F863008F057
:1007600086508770932D987F392E382A03DD932D7C
:10077000977021F488B330E1832788BB88B3822542
:1007800088BB90FF70C0BB86AA8617E25DC01C3490
:1007900009F4D4C08F8198859093C6008093C500DA
:1007A000E981FA81F093B700E093B600F092B200CD
:1007B000E092B100D092B400C092B300B092AC000D
:1007C000A092AB007092A8006092A7009092AE0039
:1007D0008092AD000093B50018BA15BA12BA109203
:1007E000C8001092C70044245524F7EF3F2280919F
:1007F000A6002B96EFE0FCC1112389F1173251F6C8
:1008000018E2832D877080FD25C034FE25C088B393
:10081000822588BB88B3822588BB08B604FC4FC0FC
:1008200034FE0160E02FF0E0E05AFF4F008100FD50
:1008300046C0BB86AA861AE207C0881A990AEA84CB
:10084000FB84BB86AA8614E429852F5F2987AA84A6
:10085000BB8451CF34FEDBCFBB86AA86F5CF932D68
:10086000977090FD90CFFADE85EDC81680E3D8062C
:1008700008F464C0EF81F885F093C600E093C500EA
:1008800029813A813093B7002093B600F092B200EC
:10089000E092B100D092B400C092B300B092AC002C
:1008A000A092AB007092A8006092A7009092AE0058
:1008B0008092AD000093B5001092A6008DCF88B74E
:1008C00088B3822588BB88B3822588BBA8ECEA2E32
:1008D000AFEFFA2E8A859B85E80EF91EF701298174
:1008E0003A81E21BF30BF887EF83CE0EDF1ED6941E
:1008F000C794460196948794969487949694879487
:100900009601369527953901680C791CC6018E0D24
:100910009F1D820F931F2FB7F8949BBD8ABD2FBFD9
:1009200030E138BFFA82E98257018A859B858E19AA
:100930009F098815990508F009CF7FCF8A859B8587
:100940008A199B098615970528F0AA84BB846D80B7
:100950007E8000CF681A790A1CE476CFF8948FEF76
:1009600081BF19BE1FBC82E08EBD18BA87E387BB6A
:1009700015BA14BA12BA88E381BB429A18BA15BAEA
:1009800012BAC29AC19AC09A65E070E080E090E025
:100990007BDBC298C198C098929A85B78C7F8160A2
:1009A00085BF8BB780648BBF88EB9BE09093A300DF
:1009B0008093A20078946AEF70E080E090E064CBCE
:1009C000EF92FF920F931F93CF93DF93262FE82F81
:1009D000F0E080E197E2BF01D9D07B0130E02E9FAB
:1009E00080012F9F100D3E9F100D11240115110540
:1009F00089F0C0E0D0E0832D8770AEDB86E090E028
:100A00002EDBC298C198C098C70129DB2196C01778
:100A1000D10788F3CDB7DEB7E6E0F3C01F9388EFC8
:100A20003822F3DB10E0912F9770832D887F382ECA
:100A3000392A812F9FDB812F8A5F6AE0C1DF65E061
:100A400070E080E090E020DB1F5F153061F76AEF17
:100A500070E080E090E018DB1F91089557DB8091F3
:100A6000A0009091A100815D9740C0F7089501C05A
:100A70004DDB8091A0009091A10084539840C0F379
:100A80000895CCDFEBDF8CE062E39ADF18BA15BA89
:100A900012BA1092C8001092C7004424552487EF60
:100AA0003822E5DF06DC882389F7EEDD882371F341
:100AB00008954CD053DFE5DFE4DFFDCF1F920F92A6
:100AC0000FB60F9211242F933F938F939F93AF9361
:100AD000BF938091CD009091CE00A091CF00B091B6
:100AE000D0003091D1000196A11DB11D232F2D5FA3
:100AF0002D3720F02D570196A11DB11D2093D10057
:100B00008093CD009093CE00A093CF00B093D000FF
:100B10008091C9009091CA00A091CB00B091CC0007
:100B20000196A11DB11D8093C9009093CA00A093A6
:100B3000CB00B093CC00BF91AF919F918F913F912B
:100B40002F910F900FBE0F901F901895789483B738
:100B5000826083BF83B7816083BF89B7816089BFAB
:100B60001EBC8EB582608EBD8EB581608EBD8FB588
:100B700081608FBD85B5846085BD85B5806485BD88
:100B8000329A319A309A379A1AB8089597FB092EFB
:100B900007260AD077FD04D043D006D000201AF4EF
:100BA000709561957F4F0895F6F7909581959F4FC9
:100BB00008952F923F924F925F926F927F928F9201
:100BC0009F92AF92BF92CF92DF92EF92FF920F93DC
:100BD0001F93CF93DF93CDB7DEB7CA1BDB0B0FB6E6
:100BE000F894DEBF0FBECDBF09942A8839884888A3
:100BF0005F846E847D848C849B84AA84B984C88439
:100C0000DF80EE80FD800C811B81AA81B981CE0F2F
:100C1000D11D0FB6F894DEBF0FBECDBFED01089514
:100C2000AA1BBB1B51E107C0AA1FBB1FA617B70712
:100C300010F0A61BB70B881F991F5A95A9F780952E
:0C0C40009095BC01CD010895F894FFCF01
:100C4C0000020406080A0C0E10121416181A1C1EA8
:100C5C0020222426282A2C2E30323436383A3C3E98
:100C6C0000020406080A0C0E10120116011A1C1EB2
:100C7C0020222426012A2C2E01010136383A3C3E32
:00000001FF
