:020000020000FC
:100000001DC065C0189518951895189585C0189548
:100010008EC099C01895189518951895189518952B
:100020001895189518950D0A626B4D797374657261
:10003000792032303431307230360D0A04E00EBF90
:100040000FE50DBF00E008BB01E207BB02E005BB06
:100050000AE304BB00E002BB00E301BB02E003BF14
:1000600002E00EBD772788279927BB27A0E6002747
:100070000D93A337E8F322D20EE3C02EB7D0B6D04B
:1000800089D0A8D08AD0A6D08BD0A4D00F931F93AC
:1000900005E00095D0D01F910F91DD2405E108BF48
:1000A00009BF789403E005BF30E43BBF2AE083FF3B
:1000B000FECF8401877F08591840C0F72A95B9F709
:1000C000F89471D070D06FD078940CD14BC24CB5ED
:1000D0005DB51FB6829B0AC062E065BF40936E00AB
:1000E00050936F001FBE18951FBE189563E065BF43
:1000F00060916E00461B60916F00560B403361E1CA
:10010000560790F7403466E0560770F388604A015E
:100110004EE3C42E1FBE18951FB671FD05C07E7F2D
:10012000ACB4BDB41FBE18957D7F1FBE18951FB619
:100130007068EE2009F0EA94CC2011F4FF2701C08A
:10014000CA941FBE18951FB684FD15C0472D4F3F9A
:1001500039F072BEC0989598AC9884611FBE18950E
:10016000C0989598AC9800000000000000000000C6
:1001700000000000000062BE80FD06C074FDC09A51
:1001800075FD959A73FDAC9A897E772009F482619A
:100190001FBE189538EC10E509C034EB14E606C014
:1001A00030EA18E703C034E618EC00C0002702BFAD
:1001B000AD9A959A02B70032E9F7AD98959820E18B
:1001C000002702BF02B70317E9F72A95C9F71A9566
:1001D00069F708951FE020E1002702BF02B70F3F33
:1001E000E9F72A95C9F71A95B1F7089510E820E1C3
:1001F000002702BF02B70F3FE9F72A95C9F71A9502
:10020000B1F7089583FF08958401877F0859184046
:1002100010F4002711271695079516950795169542
:100220000795073C08F007ECF02F08950D2D073CCB
:1002300009F0D3940895102F175310951E5F0E3FA9
:1002400008F00DEF0E5F38010895093310F48E7F2A
:1002500005C00A3F10F0816001C08E7F08954F2EC7
:100260004D1408F04D2C9361309163003090640080
:100270003D3000E0300628F4042D0095E6DFDBDF9A
:10028000089520916200203A0CE2300700E0300629
:1002900098F39D7F14E6141508F4412E283409E5DF
:1002A000300700E0300640F39E7F12E3141508F497
:1002B000412E283A01E6300700E03006E8F29F7E42
:1002C000DBCF4F2E4D1408F04D2C18E2141508F416
:1002D000412E1EE1411608F4412E042D0095B5DF94
:1002E000AADF0895C8EFD1E0C0936C00D0936B00F3
:1002F0002FEF3FE120936500309366002093670065
:1003000030936800E2E03E2EE09364003FEF3093CC
:1003100063002FEF209362000895F8940CB51DB58B
:100320007894A02EB12E209160003091610000934E
:10033000600010936100021B130B97FF04C033246D
:10034000202F312F1EC04424209162003091630081
:1003500030906400E9013694D795C7953694D795C7
:10036000C795309064002C1B3D0B3408200F311FC3
:10037000341C2C3401E03007340418F4DD2009F07B
:10038000DA9420936200309363003092640013E0AB
:10039000311608F0B7DF36943795279536943795A0
:1003A00027958901369527953695279520936500E1
:1003B000309366002093670030936800020F131F8C
:1003C0000093690010936A000895C0916900D0916C
:1003D0006A00F894CA0DDB1DDBBDCABD789471605C
:1003E00070FDFECFC0916900D0916A00CC0FDD1F77
:1003F000F894CA0DDB1DDBBDCABD78947160089509
:10040000C0916700D0916800CB50D04086DFD0917A
:100410006800C0916700F894CA0DDB1DDBBDCABD42
:1004200078947160089570FDFECFD0916600C09100
:100430006500F894CA0DDB1DDBBDCABD7894716000
:10044000089583FDDFDE0BDF83FF02C0DBDE07DF05
:1004500070FDFACFD0916A00C09169000BE044248E
:10046000C00FD41DF894CA0DDB1DDBBDCABD789446
:10047000716008957D7FC4E6D0E04FDF70FDFECF50
:10048000C0916C00D0916B004424F8940A2D1B2D70
:10049000040D1C1F1BBD0ABD7160DD2309F07260D5
:1004A0007894C450D040C63801E0D00710F4C8EFAB
:1004B000D1E0C0936C00D0936B000895F5E00F93EA
:1004C0001F9305E00095B7DE1F910F9100E0D02E3D
:1004D00000E008BB02E005BB00E002BB8160906267
:1004E00008950895816000E008BB02E005BB00E0CC
:1004F00002BBC59A089502E0E02EEE20F1F70895C0
:1005000000E008BB00E002BB02E005BB08E20A9580
:10051000F1F78E7F0EE1D02E0F931F9307E0009529
:100520008ADE1F910F9174D142D1AD9AE4DFE3DFEF
:100530000F931F930FE000957EDE1F910F91DBDF7D
:100540000F931F9306E1009576DE1F910F91D3DF85
:100550000F931F930EE100956EDE1F910F91AD98E2
:100560002DD10895ABDFBDDF4DDEF730E8F33798CE
:1005700000B7086000BFC4DF9F779B7F00E0009357
:100580006D0000E5E02EAEDE75DF0CC0F8D0E3D0E4
:1005900070FF94600CD16EDFDED0F1D070FF9460FC
:1005A0000DD168DFECD0D7D070FF946015D162DF39
:1005B000D2D0E5D070FF946016D15CDFE0D0CBD014
:1005C00070FF94601ED132DE1DDE7BDE53DFC3D0B0
:1005D000D6D070FF94601CD1F63020F2EE2011F2DC
:1005E00000916D0092FD0027039500936D009B7FA5
:1005F000043140F0009163000A340091640010E07F
:10060000010710F037DFC2CF08E2D02E7D7FF8DE81
:100610000ADF17DF9F7500C07CD070FF03C08AD04F
:1006200070FD07C097FD67C090685CDFD5D0CDDE58
:1006300029C0E6DEF8DEBBD004DF9F777BD070FFF9
:1006400003C067D070FD07C097FD55C090684ADFB2
:10065000CAD0BBDE29C0D4DEE6DEB0D0F2DE9F77A2
:1006600058D070FF03C066D070FD07C097FD43C02F
:10067000906838DFC6D0A9DE29C0C2DED4DEACD097
:10068000E0DE9F7757D070FF03C043D070FD07C0F6
:1006900097FD31C0906826DFBBD097DEBDCFB0DEBE
:1006A000C2DEA1D0CEDE9F7734D070FF03C042D02F
:1006B00070FD07C097FD1FC0906814DF78D085DEFD
:1006C000BDCF9EDEB0DE9DD0BCDE9F7733D070FF05
:1006D00003C01FD070FD07C097FD0DC0906802DFFA
:1006E0006DD073DEBDCF8CDE9EDE92D09FDDA9DEA5
:1006F0009F7794FD91CF9062F83208F001C034CF1B
:10070000F894DCDE9BCC0F9301E20A95F1F70F9190
:1007100008950FEF18E022E0442470FF08958894B4
:10072000459B08943FB6141D3FBE001F14091217C5
:10073000A0F7089500E010E027E0442470FF08953A
:100740008894459B08943FB6141D3FBE001F1409B2
:100750001217A0F3089500E010E027E0442484FF7E
:10076000FECF70FF08958894459B08943FB6141DF2
:100770003FBE001F1409C7DF121798F308950FEF4B
:1007800018E022E0442484FFFECF70FF089588948F
:10079000459B08943FB6141D3FBE001F1409B3DFEC
:1007A000121798F7089570FF0895FDCF0895AD983A
:1007B000AB9880FF949A07E007B90895F894AB9836
:1007C000777C786082FD04C0C098959880FFAC9AD1
:1007D000789400E007B908959498AD9880FFAB9A9B
:1007E00006E007B90895F894AD98777C706282FDB1
:1007F00004C0AC98C09880FF959A789407E007B938
:100800000895AB98949880FFAD9A00E007B90895D9
:10081000F8949498777C706182FD04C09598AC98A8
:0C08200080FFC09A789406E007B90895A4
:00000001FF
